:040000008CEF3FF052
:107F0E00C0F9A4B0999282F880900E0EF66E7F0E94
:107F1E00F76E000EF86E00EE01F010EE0AF009009A
:107F2E00F5CFEEFFE550E150FAE100019FEF3FF093
:107F3E00000E816E000E8A6E000E836E000E8C6E29
:107F4E00000E956E010E936E81BEB0EF3FF0B2EF54
:107F5E003FF0DCEF3FF0000E0E6E000E0D6E010EC8
:107F6E000D24D96E000E0E20DA6EDF50836E1A0EBF
:107F7E000C6E5E0E0B6E6E0EE82EFED70B2EFCD721
:107F8E000C2EFAD700D00D4A0E2A0EBED8EF3FF0B7
:107F9E000E5009E10A0E0D5CD8A0D8EF3FF0DAEFD3
:107FAE003FF0B6EF3FF0FEEF3FF0000E106E090E01
:107FBE000F6E010E0F24D96E000E1020DA6EDF50F8
:107FCE00836E1A0E0C6E5E0E0B6E6E0EE82EFED7C4
:107FDE000B2EFCD70C2EFAD700D00F06D8A0100609
:107FEE0010BEFEEF3FF0FCEF3FF0E0EF3FF000EF92
:027FFE0000F091
:020000040020DA
:08000000FFFFFFFFFFFFFFFF00
:020000040030CA
:0E000000000C191EFF8080FF0FC00FE00F40A4
:00000001FF
